{
  "contractName": "PiggyBankTru",
  "abi": [
    {
      "inputs": [],
      "payable": false,
      "stateMutability": "nonpayable",
      "type": "constructor"
    },
    {
      "anonymous": false,
      "inputs": [
        {
          "indexed": false,
          "name": "",
          "type": "address"
        },
        {
          "indexed": false,
          "name": "",
          "type": "uint256"
        }
      ],
      "name": "Transfer",
      "type": "event"
    },
    {
      "constant": true,
      "inputs": [
        {
          "name": "cuenta",
          "type": "address"
        }
      ],
      "name": "getAlcancia",
      "outputs": [
        {
          "name": "",
          "type": "uint256"
        }
      ],
      "payable": false,
      "stateMutability": "view",
      "type": "function"
    },
    {
      "constant": false,
      "inputs": [
        {
          "name": "amount",
          "type": "uint256"
        }
      ],
      "name": "depositAmount",
      "outputs": [],
      "payable": true,
      "stateMutability": "payable",
      "type": "function"
    },
    {
      "constant": false,
      "inputs": [
        {
          "name": "amount",
          "type": "uint256"
        }
      ],
      "name": "withdraw",
      "outputs": [],
      "payable": false,
      "stateMutability": "nonpayable",
      "type": "function"
    },
    {
      "constant": true,
      "inputs": [],
      "name": "getBalance",
      "outputs": [
        {
          "name": "",
          "type": "uint256"
        }
      ],
      "payable": false,
      "stateMutability": "view",
      "type": "function"
    },
    {
      "constant": true,
      "inputs": [],
      "name": "getBalanceInEther",
      "outputs": [
        {
          "name": "",
          "type": "uint256"
        }
      ],
      "payable": false,
      "stateMutability": "view",
      "type": "function"
    },
    {
      "constant": false,
      "inputs": [
        {
          "name": "amount",
          "type": "uint256"
        },
        {
          "name": "to",
          "type": "address"
        }
      ],
      "name": "transferTo",
      "outputs": [],
      "payable": false,
      "stateMutability": "nonpayable",
      "type": "function"
    }
  ],
  "bytecode": "0x608060405234801561001057600080fd5b50336000806101000a81548173ffffffffffffffffffffffffffffffffffffffff021916908373ffffffffffffffffffffffffffffffffffffffff1602179055506106f6806100606000396000f300608060405260043610610078576000357c0100000000000000000000000000000000000000000000000000000000900463ffffffff16806312065fe01461007d5780632e1a7d4d146100a8578063359c09b5146100d557806387f8ab2614610100578063d4822fbf14610120578063ebac44151461016d575b600080fd5b34801561008957600080fd5b506100926101c4565b6040518082815260200191505060405180910390f35b3480156100b457600080fd5b506100d3600480360381019080803590602001909291905050506101e3565b005b3480156100e157600080fd5b506100ea610372565b6040518082815260200191505060405180910390f35b61011e60048036038101908080359060200190929190505050610394565b005b34801561012c57600080fd5b5061016b60048036038101908080359060200190929190803573ffffffffffffffffffffffffffffffffffffffff1690602001909291905050506104bc565b005b34801561017957600080fd5b506101ae600480360381019080803573ffffffffffffffffffffffffffffffffffffffff1690602001909291905050506105c4565b6040518082815260200191505060405180910390f35b60003073ffffffffffffffffffffffffffffffffffffffff1631905090565b6000600160003373ffffffffffffffffffffffffffffffffffffffff1673ffffffffffffffffffffffffffffffffffffffff16815260200190815260200160002090503373ffffffffffffffffffffffffffffffffffffffff168160000160009054906101000a900473ffffffffffffffffffffffffffffffffffffffff1673ffffffffffffffffffffffffffffffffffffffff1614151561028457600080fd5b8181600101541015151561029757600080fd5b818160010160008282540392505081905550600181600201600082825401925050819055507f69ca02dd4edd7bf0a4abb9ed3b7af3f14778db5d61921c7dc7cd545266326de23383604051808373ffffffffffffffffffffffffffffffffffffffff1673ffffffffffffffffffffffffffffffffffffffff1681526020018281526020019250505060405180910390a13373ffffffffffffffffffffffffffffffffffffffff166108fc839081150290604051600060405180830381858888f1935050505015801561036d573d6000803e3d6000fd5b505050565b6000670de0b6b3a76400006103856101c4565b81151561038e57fe5b04905090565b600081341415156103a457600080fd5b600160003373ffffffffffffffffffffffffffffffffffffffff1673ffffffffffffffffffffffffffffffffffffffff1681526020019081526020016000209050338160000160006101000a81548173ffffffffffffffffffffffffffffffffffffffff021916908373ffffffffffffffffffffffffffffffffffffffff160217905550818160010160008282540192505081905550600181600201600082825401925050819055507f69ca02dd4edd7bf0a4abb9ed3b7af3f14778db5d61921c7dc7cd545266326de23383604051808373ffffffffffffffffffffffffffffffffffffffff1673ffffffffffffffffffffffffffffffffffffffff1681526020018281526020019250505060405180910390a15050565b6000809054906101000a900473ffffffffffffffffffffffffffffffffffffffff1673ffffffffffffffffffffffffffffffffffffffff163373ffffffffffffffffffffffffffffffffffffffff1614151561051757600080fd5b813073ffffffffffffffffffffffffffffffffffffffff16311015151561053d57600080fd5b600073ffffffffffffffffffffffffffffffffffffffff168173ffffffffffffffffffffffffffffffffffffffff161415151561057957600080fd5b8073ffffffffffffffffffffffffffffffffffffffff166108fc839081150290604051600060405180830381858888f193505050501580156105bf573d6000803e3d6000fd5b505050565b60006105ce610692565b600160008473ffffffffffffffffffffffffffffffffffffffff1673ffffffffffffffffffffffffffffffffffffffff168152602001908152602001600020606060405190810160405290816000820160009054906101000a900473ffffffffffffffffffffffffffffffffffffffff1673ffffffffffffffffffffffffffffffffffffffff1673ffffffffffffffffffffffffffffffffffffffff1681526020016001820154815260200160028201548152505090508060200151915050919050565b606060405190810160405280600073ffffffffffffffffffffffffffffffffffffffff168152602001600081526020016000815250905600a165627a7a72305820fad7123337dd23b0dd9f9aeb63183e2ec61c89b537edf009a2d852ad118f461b0029",
  "source": "pragma solidity ^0.4.24;\n\n\ncontract PiggyBankTru  {\n\naddress owner;\n\nstruct Alcancia {\naddress owner;\nuint balanceUsuario;\nuint transacciones;\n}\n\nmapping( address => Alcancia ) private users;\n\nevent Transfer( address , uint );\n\nconstructor() public {\nowner = msg.sender;\n}\n\n\n\nfunction getAlcancia(address cuenta) public view returns( uint ) {\nAlcancia memory usuario = users[cuenta];\nreturn usuario.balanceUsuario;\n}\n\n\nfunction depositAmount(uint256 amount) payable public {\nrequire(msg.value == amount);\nAlcancia storage usuario = users[msg.sender];\nusuario.owner = msg.sender;\nusuario.balanceUsuario += amount;\nusuario.transacciones += 1; \nemit Transfer( msg.sender , amount );\n}\n\n\nfunction withdraw( uint amount ) public {\nAlcancia storage usuario = users[msg.sender];\n\nrequire( usuario.owner == msg.sender );\nrequire( usuario.balanceUsuario >= amount );\nusuario.balanceUsuario -= amount;\nusuario.transacciones += 1;\nemit Transfer( msg.sender , amount );\nreturn msg.sender.transfer(amount);\n}\n\nfunction getBalance() public view returns ( uint ){\nreturn address(this).balance;\n}\n\nfunction getBalanceInEther() public view returns ( uint ) {\nreturn getBalance() / 1e18;\n}\n\nfunction transferTo( uint amount , address to ) public isOwner {\nrequire( address(this).balance >= amount );\nrequire( to != address(0));\nto.transfer(amount);\n}\n\nmodifier isOwner(){\nrequire( msg.sender == owner );\n_;\n}\n\n\n\n\n\n}",
  "sourcePath": "/Users/macbook/Documents/projects/TRU/blockchain/contracts/PiggyBankTru.sol",
  "compiler": {
    "name": "solc",
    "version": "0.4.25+commit.59dbf8f1.Emscripten.clang"
  },
  "schemaVersion": "2.0.2",
  "updatedAt": "2021-04-30T14:26:02.504Z"
}